{
  "_format": "hh-sol-artifact-1",
  "contractName": "Escrow",
  "sourceName": "contracts/Escrow.sol",
  "abi": [
    {
      "anonymous": false,
      "inputs": [
        {
          "indexed": true,
          "internalType": "uint256",
          "name": "jobId",
          "type": "uint256"
        },
        {
          "indexed": true,
          "internalType": "address",
          "name": "worker",
          "type": "address"
        },
        {
          "indexed": false,
          "internalType": "uint256",
          "name": "amount",
          "type": "uint256"
        }
      ],
      "name": "FundsReleased",
      "type": "event"
    },
    {
      "anonymous": false,
      "inputs": [
        {
          "indexed": true,
          "internalType": "uint256",
          "name": "jobId",
          "type": "uint256"
        }
      ],
      "name": "JobCancelled",
      "type": "event"
    },
    {
      "anonymous": false,
      "inputs": [
        {
          "indexed": true,
          "internalType": "uint256",
          "name": "jobId",
          "type": "uint256"
        },
        {
          "indexed": true,
          "internalType": "address",
          "name": "client",
          "type": "address"
        },
        {
          "indexed": true,
          "internalType": "address",
          "name": "worker",
          "type": "address"
        },
        {
          "indexed": false,
          "internalType": "uint256",
          "name": "amount",
          "type": "uint256"
        }
      ],
      "name": "JobCreated",
      "type": "event"
    },
    {
      "anonymous": false,
      "inputs": [
        {
          "indexed": true,
          "internalType": "uint256",
          "name": "jobId",
          "type": "uint256"
        },
        {
          "indexed": false,
          "internalType": "uint256",
          "name": "amount",
          "type": "uint256"
        }
      ],
      "name": "JobFunded",
      "type": "event"
    },
    {
      "inputs": [
        {
          "internalType": "uint256",
          "name": "jobId",
          "type": "uint256"
        }
      ],
      "name": "cancelJob",
      "outputs": [],
      "stateMutability": "nonpayable",
      "type": "function"
    },
    {
      "inputs": [
        {
          "internalType": "address",
          "name": "worker",
          "type": "address"
        },
        {
          "internalType": "uint256",
          "name": "amount",
          "type": "uint256"
        }
      ],
      "name": "createJob",
      "outputs": [
        {
          "internalType": "uint256",
          "name": "jobId",
          "type": "uint256"
        }
      ],
      "stateMutability": "nonpayable",
      "type": "function"
    },
    {
      "inputs": [
        {
          "internalType": "uint256",
          "name": "jobId",
          "type": "uint256"
        }
      ],
      "name": "fundJob",
      "outputs": [],
      "stateMutability": "payable",
      "type": "function"
    },
    {
      "inputs": [
        {
          "internalType": "uint256",
          "name": "",
          "type": "uint256"
        }
      ],
      "name": "jobs",
      "outputs": [
        {
          "internalType": "address",
          "name": "client",
          "type": "address"
        },
        {
          "internalType": "address",
          "name": "worker",
          "type": "address"
        },
        {
          "internalType": "uint256",
          "name": "amount",
          "type": "uint256"
        },
        {
          "internalType": "bool",
          "name": "funded",
          "type": "bool"
        },
        {
          "internalType": "bool",
          "name": "released",
          "type": "bool"
        },
        {
          "internalType": "bool",
          "name": "cancelled",
          "type": "bool"
        }
      ],
      "stateMutability": "view",
      "type": "function"
    },
    {
      "inputs": [],
      "name": "nextJobId",
      "outputs": [
        {
          "internalType": "uint256",
          "name": "",
          "type": "uint256"
        }
      ],
      "stateMutability": "view",
      "type": "function"
    },
    {
      "inputs": [
        {
          "internalType": "uint256",
          "name": "jobId",
          "type": "uint256"
        }
      ],
      "name": "releaseFunds",
      "outputs": [],
      "stateMutability": "nonpayable",
      "type": "function"
    }
  ],
  "bytecode": "0x608060405234801561001057600080fd5b506109c4806100206000396000f3fe6080604052600436106100555760003560e01c8063180aedf31461005a5780631dffa3dc146101025780633f2a66f8146101245780634d68282f146101525780638d22b86314610172578063b0c2aa5e14610185575b600080fd5b34801561006657600080fd5b506100bf6100753660046108cc565b60006020819052908152604090208054600182015460028301546003909301546001600160a01b0392831693919092169160ff808216916101008104821691620100009091041686565b604080516001600160a01b039788168152969095166020870152938501929092521515606084015215156080830152151560a082015260c0015b60405180910390f35b34801561010e57600080fd5b5061012261011d3660046108cc565b61019b565b005b34801561013057600080fd5b5061014461013f3660046108e5565b610382565b6040519081526020016100f9565b34801561015e57600080fd5b5061012261016d3660046108cc565b61051d565b6101226101803660046108cc565b61074c565b34801561019157600080fd5b5061014460015481565b600081815260208190526040902080546001600160a01b03166101d95760405162461bcd60e51b81526004016101d09061091d565b60405180910390fd5b80546001600160a01b031633146102025760405162461bcd60e51b81526004016101d090610942565b600381015462010000900460ff16156102515760405162461bcd60e51b8152602060048201526011602482015270185b1c9958591e4818d85b98d95b1b1959607a1b60448201526064016101d0565b6003810154610100900460ff161561029e5760405162461bcd60e51b815260206004820152601060248201526f185b1c9958591e481c995b19585cd95960821b60448201526064016101d0565b60038101805462ff0000198116620100001790915560ff161561035357805460028201546040516000926001600160a01b031691908381818185875af1925050503d806000811461030b576040519150601f19603f3d011682016040523d82523d6000602084013e610310565b606091505b50509050806103515760405162461bcd60e51b815260206004820152600d60248201526c1c99599d5b990819985a5b1959609a1b60448201526064016101d0565b505b60405182907f58243f872c550ad02802199ade99eb4250f6bb19e9abbf2d3de7b969c0eb5e4f90600090a25050565b60006001600160a01b0383166103cc5760405162461bcd60e51b815260206004820152600f60248201526e1ddbdc9ad95c881c995c5d5a5c9959608a1b60448201526064016101d0565b600082116104095760405162461bcd60e51b815260206004820152600a6024820152690616d6f756e74203e20360b41b60448201526064016101d0565b60016000815461041890610967565b91829055506040805160c081018252338082526001600160a01b0387811660208085018281528587018a81526000606088018181526080890182815260a08a018381528c845295839052918a9020985189549088166001600160a01b0319918216178a55935160018a018054919098169416939093179095555160028701555160039095018054935191511515620100000262ff0000199215156101000261ff00199715159790971661ffff199095169490941795909517169190911790925591519293509183907f8f4ee83cefe0dfb2f73fe6057bfa5b233fc43358bbb5f5606f444cbd4c5c4f8c9061050f9087815260200190565b60405180910390a492915050565b600081815260208190526040902080546001600160a01b03166105525760405162461bcd60e51b81526004016101d09061091d565b80546001600160a01b0316331461057b5760405162461bcd60e51b81526004016101d090610942565b600381015460ff166105bc5760405162461bcd60e51b815260206004820152600a6024820152691b9bdd08199d5b99195960b21b60448201526064016101d0565b6003810154610100900460ff16156106095760405162461bcd60e51b815260206004820152601060248201526f185b1c9958591e481c995b19585cd95960821b60448201526064016101d0565b600381015462010000900460ff16156106505760405162461bcd60e51b815260206004820152600960248201526818d85b98d95b1b195960ba1b60448201526064016101d0565b60038101805461ff001916610100179055600181015460028201546040516000926001600160a01b031691908381818185875af1925050503d80600081146106b4576040519150601f19603f3d011682016040523d82523d6000602084013e6106b9565b606091505b50509050806106fc5760405162461bcd60e51b815260206004820152600f60248201526e1d1c985b9cd9995c8819985a5b1959608a1b60448201526064016101d0565b600182015460028301546040519081526001600160a01b039091169084907f6e3c6096795c8298a218b2cfb8bde42726ff7c9a3d27b4d3ba41ab7f74feb5fb9060200160405180910390a3505050565b600081815260208190526040902080546001600160a01b03166107815760405162461bcd60e51b81526004016101d09061091d565b80546001600160a01b031633146107aa5760405162461bcd60e51b81526004016101d090610942565b600381015462010000900460ff16156107f15760405162461bcd60e51b815260206004820152600960248201526818d85b98d95b1b195960ba1b60448201526064016101d0565b600381015460ff16156108375760405162461bcd60e51b815260206004820152600e60248201526d185b1c9958591e48199d5b99195960921b60448201526064016101d0565b8060020154341461087d5760405162461bcd60e51b815260206004820152601060248201526f1a5b98dbdc9c9958dd08185b5bdd5b9d60821b60448201526064016101d0565b60038101805460ff1916600117905560405182907f9d25c5cf940eed311c45e5a0b4c7c8790a356d3c356453b76bb7e232db3f384a906108c09034815260200190565b60405180910390a25050565b6000602082840312156108de57600080fd5b5035919050565b600080604083850312156108f857600080fd5b82356001600160a01b038116811461090f57600080fd5b946020939093013593505050565b6020808252600b908201526a6a6f62206d697373696e6760a81b604082015260600190565b6020808252600b908201526a1bdb9b1e4818db1a595b9d60aa1b604082015260600190565b60006001820161098757634e487b7160e01b600052601160045260246000fd5b506001019056fea2646970667358221220100f6a44e4772ff5d27c56076f6a9de3aad9db9837b35c03c1a74b4a91889b8c64736f6c63430008180033",
  "linkReferences": {},
  "deployedLinkReferences": {}
}